:100000000C942A000C9447000C9447000C94470071
:100010000C9447000C9447000C9447000C94470044
:100020000C9447000C94C0130C9447000C944700A8
:100030000C9447000C9447000C9447000C94470024
:100040000C9447000C9447000C9447000C94470014
:100050000C94470011241FBECFE5D8E0DEBFCDBF12
:1000600011E0A0E6B0E0EAEFF0E302C005900D92E7
:10007000AE3DB107D9F711E0AEEDB1E001C01D9280
:10008000A23EB107E1F70E9482150C947B180C94F4
:100090000000EF92FF920F931F937B018C0120E0F1
:1000A00030E040E05FE40E94F50388238CF0C80153
:1000B000B70120E030E040E05FE40E94C1010E940F
:1000C00055049B01AC01205030404040504806C0D0
:1000D000C801B7010E9455049B01AC01B901CA01D6
:1000E0001F910F91FF90EF900895A0E0B0E0EBE733
:1000F000F0E00C944418DC012B01FA019C91923041
:1001000008F439C1EB018881823008F433C194309E
:1001100069F4843009F02FC111969C91119789815F
:10012000981709F428C1A6EDB0E025C1843009F480
:1001300021C18230A9F4923009F01DC19A01AD01AC
:1001400088E0EA010990AE01E90109929E0181501F
:10015000C1F7E201898111969C918923818308C1AD
:10016000923009F407C112962D903C901397EB0141
:100170008A819B811496AD90BD90CD90DC901797AD
:10018000EC80FD800E811F819101281B390BB90184
:1001900037FF04C066277727621B730B6032710537
:1001A0000CF061C0121613066CF537014801062EDB
:1001B00004C096948794779467940A94D2F721E0C8
:1001C00030E040E050E004C0220F331F441F551FB1
:1001D0006A95D2F721503040404050402E213F21B7
:1001E00040235123211531054105510521F021E01E
:1001F00030E040E050E079018A01E628F72808293C
:1002000019293CC0232BD1F1260E371E350146019A
:10021000062E04C096948794779467940A94D2F734
:1002200021E030E040E050E004C0220F331F441FC3
:10023000551F6A95D2F721503040404050402A2146
:100240003B214C215D21211531054105510521F04E
:1002500021E030E040E050E059016A01A628B728CB
:10026000C828D9280BC0821593052CF01C01AA249C
:10027000BB24650103C0EE24FF24870111969C91E5
:10028000D20111968C91981709F445C0992339F041
:10029000A80197012A193B094C095D0906C0A6016E
:1002A00095012E193F09400B510B57FD08C01182D3
:1002B0003382228224833583468357831DC081E0A5
:1002C00081833382228288279927DC01821B930B4A
:1002D000A40BB50B84839583A683B7830DC0220F2F
:1002E000331F441F551F24833583468357838281E0
:1002F000938101979383828324813581468157813D
:10030000DA01C9010197A109B1098F5F9F4FAF4F72
:10031000BF4328F30BC0918333822282EA0CFB1C7B
:100320000C1D1D1DE482F5820683178383E0808304
:10033000248135814681578157FF1AC0C901AA27F8
:1003400097FDA095BA2F81709070A070B0705695EF
:10035000479537952795822B932BA42BB52B848318
:100360009583A683B7838281938101969383828349
:10037000DF0101C0D201CD01CDB7DEB7E2E10C94BF
:100380006018A0E2B0E0E7ECF1E00C94501869834B
:100390007A838B839C832D833E834F835887E9E048
:1003A000EE2EF12CEC0EFD1ECE010196B7010E943F
:1003B00046068E010F5E1F4FCE010596B8010E94C2
:1003C00046068A8991E089278A8BC701B801AE0168
:1003D000475E5F4F0E9475000E947105A096E6E09F
:1003E0000C946C18A0E2B0E0E8EFF1E00C94501827
:1003F00069837A838B839C832D833E834F835887C5
:10040000F9E0EF2EF12CEC0EFD1ECE010196B701A6
:100410000E9446068E010F5E1F4FCE010596B80161
:100420000E944606C701B801AE01475E5F4F0E94B9
:1004300075000E947105A096E6E00C946C18A0E28D
:10044000B0E0E5E2F2E00C94441869837A838B8390
:100450009C832D833E834F835887CE010196BE0136
:10046000675F7F4F0E944606CE010596BE016F5E14
:100470007F4F0E9446069985923088F089898230A4
:10048000C8F0943019F4823051F404C0843029F457
:10049000923081F486ED90E0C6C0923049F420E0BD
:1004A0009A858A89981321E02A87CE010996BBC0D4
:1004B000823049F420E09A858A89981321E02A8BBA
:1004C000CE014196B0C02D843E844F8458886D88FB
:1004D0007E888F88988CEE24FF248701AA24BB2471
:1004E000650140E050E060E070E0E0E0F0E0C10174
:1004F00081709070892BE9F0E60CF71C081D191D1E
:100500009A01AB012A0D3B1D4C1D5D1D80E090E062
:10051000A0E0B0E0E614F7040805190520F481E036
:1005200090E0A0E0B0E0BA01A901480F591F6A1F8E
:100530007B1FAA0CBB1CCC1CDD1C97FE08C081E0F5
:1005400090E0A0E0B0E0A82AB92ACA2ADB2A3196B6
:10055000E032F10549F0660C771C881C991C569412
:10056000479437942794C3CFFA85EA892B893C892D
:100570008B859C85280F391F2E5F3F4F17C0CA01FE
:1005800081709070892B61F016950795F794E79428
:1005900080E090E0A0E0B0E8E82AF92A0A2B1B2BC3
:1005A00076956795579547952F5F3F4F77FDE7CF36
:1005B0000CC0440F551F661F771F17FD4160EE0CDE
:1005C000FF1C001F111F21503040403090E05907A0
:1005D00090E0690790E4790760F32B8F3C8FDB0193
:1005E000CA018F779070A070B07080349105A1051A
:1005F000B10561F447FD0AC0E114F10401051105DC
:1006000029F0405C5F4F6F4F7F4F40781A8EFE1786
:1006100011F081E08A8F4D8F5E8F6F8F78A383E01A
:10062000898FCE0149960E947105A096E2E10C9453
:100630006018A8E1B0E0EFE1F3E00C944C18698396
:100640007A838B839C832D833E834F835887B9E0C5
:10065000EB2EF12CEC0EFD1ECE010196B7010E948F
:1006600046068E010F5E1F4FCE010596B8010E940F
:1006700046062985223008F47EC03989323010F4CC
:10068000B8017CC08A859A8989278A87243011F02D
:10069000223031F4231709F06EC066ED70E06EC0B1
:1006A000343039F41D861E861F86188A1C861B86E8
:1006B00004C0323021F484E08987B7015FC02B8504
:1006C0003C858B899C89281B390B3C872B87ED84C3
:1006D000FE840F851889AD88BE88CF88D88CEA142F
:1006E000FB040C051D0540F4EE0CFF1C001F111F40
:1006F000215030403C872B8720E030E040E050E044
:1007000080E090E0A0E0B0E460E070E0EA14FB0478
:100710000C051D0540F0282B392B4A2B5B2BEA18C2
:10072000FB080C091D09B695A79597958795EE0CC2
:10073000FF1C001F111F6F5F7F4F6F31710531F775
:10074000DA01C9018F779070A070B0708034910584
:10075000A105B10561F427FD0AC0E114F10401050A
:10076000110529F0205C3F4F4F4F5F4F20782D87B8
:100770003E874F87588BBE01675F7F4FCB010E943A
:1007800071056896EAE00C946818A8E1B0E0EBEC1B
:10079000F3E00C94501869837A838B839C832D83B8
:1007A0003E834F83588789E0E82EF12CEC0EFD1E26
:1007B000CE010196B7010E9446068E010F5E1F4FC3
:1007C000CE010596B8010E9446068985823040F028
:1007D0008989823028F0C701B8010E94BE0601C095
:1007E0008FEF6896E6E00C946C18A8E1B0E0EBEFB0
:1007F000F3E00C94501869837A838B839C832D8358
:100800003E834F83588789E0E82EF12CEC0EFD1EC5
:10081000CE010196B7010E9446068E010F5E1F4F62
:10082000CE010596B8010E9446068985823040F0C7
:100830008989823028F0C701B8010E94BE0601C034
:100840008FEF6896E6E00C946C18A8E1B0E0EBE25C
:10085000F4E00C94501869837A838B839C832D83F6
:100860003E834F83588789E0E82EF12CEC0EFD1E65
:10087000CE010196B7010E9446068E010F5E1F4F02
:10088000CE010596B8010E9446068985823040F067
:100890008989823028F0C701B8010E94BE0601C0D4
:1008A00081E06896E6E00C946C18ACE0B0E0EBE513
:1008B000F4E00C94541869837A838B839C83CE0173
:1008C0000196BE016B5F7F4F0E9446068D8182308C
:1008D00061F1823050F1843021F48E81882351F10E
:1008E0002EC02F81388537FD20C06E812F31310514
:1008F0001CF06623F9F023C08EE190E0821B930B7D
:1009000029853A854B855C8504C056954795379572
:1009100027958A95D2F76623B1F05095409530958A
:1009200021953F4F4F4F5F4F0EC020E030E040E039
:1009300050E009C02FEF3FEF4FEF5FE704C020E02A
:1009400030E040E050E8B901CA012C96E2E00C9496
:100950007018A8E0B0E0EFEAF4E00C944C187B01CA
:100960008C01611571058105910519F482E0898377
:1009700060C083E089838EE1C82ED12CDC82CB82DB
:10098000ED82FE820F831887C801B7010E942205FD
:10099000FC013197F7FF3BC0222733272E1B3F0B6B
:1009A00057016801022E04C0D694C794B794A79447
:1009B0000A94D2F740E050E060E070E081E090E01F
:1009C000A0E0B0E004C0880F991FAA1FBB1F2A95A2
:1009D000D2F70197A109B1098E219F21A023B1234C
:1009E0000097A105B10521F041E050E060E070E022
:1009F0004A295B296C297D294D835E836F83788723
:100A00008EE190E08E1B9F0B9C838B8312C03097EE
:100A100081F00E2E04C0EE0CFF1C001F111F0A9463
:100A2000D2F7ED82FE820F831887CE1ADF0ADC82AE
:100A3000CB821A82CE0101960E9471052896EAE0C7
:100A40000C946818EF92FF920F931F937B018C0117
:100A500080E0E81680E0F80681E0080780E01807EB
:100A600088F48FEFE816F1040105110531F028F044
:100A700088E090E0A0E0B0E017C080E090E0A0E067
:100A8000B0E012C080E0E81680E0F80680E00807D9
:100A900081E0180728F088E190E0A0E0B0E004C011
:100AA00080E190E0A0E0B0E020E230E040E050E003
:100AB000281B390B4A0B5B0B04C016950795F7945E
:100AC000E7948A95D2F7F701E252FF4F8081281B05
:100AD000310941095109C9011F910F91FF90EF9010
:100AE0000895DF92EF92FF920F931F93FC01E48031
:100AF000F58006811781D1808081823048F480E0C2
:100B000090E0A0E1B0E0E82AF92A0A2B1B2BA5C04F
:100B1000843009F49FC0823021F4EE24FF24870141
:100B200005C0E114F1040105110519F4E0E0F0E05D
:100B300096C0628173819FEF623879070CF05BC0C9
:100B400022E83FEF261B370B2A3131052CF020E03D
:100B500030E040E050E02AC0B801A701022E04C0F6
:100B600076956795579547950A94D2F781E090E07E
:100B7000A0E0B0E004C0880F991FAA1FBB1F2A95F0
:100B8000D2F70197A109B1098E219F21A023B1239A
:100B90000097A105B10521F081E090E0A0E0B0E070
:100BA0009A01AB01282B392B4A2B5B2BDA01C901A7
:100BB0008F779070A070B07080349105A105B10559
:100BC00039F427FF09C0205C3F4F4F4F5F4F04C0EF
:100BD000215C3F4F4F4F5F4FE0E0F0E02030A0E05E
:100BE0003A07A0E04A07A0E45A0710F0E1E0F0E07D
:100BF00079018A0127C06038710564F5FB01E1586D
:100C0000FF4FD801C7018F779070A070B07080340B
:100C10009105A105B10539F4E7FE0DC080E490E02F
:100C2000A0E0B0E004C08FE390E0A0E0B0E0E80E08
:100C3000F91E0A1F1B1F17FF05C016950795F7948D
:100C4000E794319687E016950795F794E7948A958F
:100C5000D1F705C0EE24FF248701EFEFF0E06E2FFF
:100C6000679566276795902F9F77D794DD24D79453
:100C70008E2F8695492F462B582F5D29B701CA0123
:100C80001F910F91FF90EF90DF900895FC01DB0121
:100C9000408151812281622F6F7770E0221F2227CD
:100CA000221F9381892F880F822B282F30E0991FD4
:100CB0009927991F11969C93119721153105A9F534
:100CC000411551056105710511F482E037C082E8D4
:100CD0009FEF13969C938E9312979A01AB0167E056
:100CE000220F331F441F551F6A95D1F783E08C9361
:100CF0000DC0220F331F441F551F12968D919C91DA
:100D00001397019713969C938E931297203080E04F
:100D1000380780E0480780E4580758F314962D936D
:100D20003D934D935C93179708952F3F310579F4C8
:100D3000411551056105710519F484E08C930895FE
:100D400064FF03C081E08C9312C01C9210C02F5727
:100D5000304013963C932E93129783E08C9387E058
:100D6000440F551F661F771F8A95D1F7706414963C
:100D70004D935D936D937C93179708951F93DC01BA
:100D8000FB019C91923008F447C08081823008F4C6
:100D900043C0943051F411961C91843099F58181AF
:100DA000682F70E0611B71093FC0843021F09230E0
:100DB00031F48230B9F18181882389F12DC01196F7
:100DC0001C9111978230F1F081811817D9F4129695
:100DD0002D913C911397828193818217930794F010
:100DE00028173907BCF014968D919D910D90BC91F8
:100DF000A02D2481358146815781281739074A075C
:100E00005B0718F4112341F00AC082179307A40767
:100E1000B50740F4112319F061E070E005C06FEFF1
:100E20007FEF02C060E070E0CB011F910895DF9377
:100E3000CF93CDB7DEB782E06FEF0E94350ACF9136
:100E4000DF910895DF93CF93CDB7DEB782E060E006
:100E500041E00E942D0982E065E041E00E942D09F9
:100E600082E061E041E00E942D0982E062E040E022
:100E70000E942D0982E063E041E00E942D0982E09A
:100E800064E040E00E942D09CF91DF910895DF9347
:100E9000CF93CDB7DEB782E060E041E00E942D093C
:100EA00082E065E041E00E942D0982E061E040E0DF
:100EB0000E942D0982E062E041E00E942D0982E05B
:100EC00063E040E00E942D0982E064E041E00E947E
:100ED0002D09CF91DF910895DF93CF93CDB7DEB782
:100EE00082E060E041E00E942D0982E065E041E09F
:100EF0000E942D0982E061E041E00E942D0982E01C
:100F000062E040E00E942D0982E063E040E00E9440
:100F10002D0982E064E041E00E942D09CF91DF912C
:100F20000895DF93CF93CDB7DEB782E060E041E074
:100F30000E942D0982E065E041E00E942D0982E0D7
:100F400061E040E00E942D0982E062E041E00E9401
:100F50002D0982E063E041E00E942D0982E064E017
:100F600040E00E942D09CF91DF910895DF93CF9348
:100F7000CDB7DEB782E060E041E00E942D0982E05B
:100F800065E041E00E942D0982E061E040E00E94BE
:100F90002D0982E062E041E00E942D0982E063E0D9
:100FA00041E00E942D0982E064E040E00E942D09AA
:100FB000CF91DF910895DF93CF93CDB7DEB782E075
:100FC00060E041E00E942D0982E065E041E00E947E
:100FD0002D0982E061E041E00E942D0982E062E09B
:100FE00040E00E942D0982E063E040E00E942D096C
:100FF00082E064E041E00E942D09CF91DF910895E5
:10100000DF93CF93CDB7DEB782E060E040E00E948F
:101010002D0982E065E040E00E942D0982E061E058
:1010200040E00E942D0982E062E040E00E942D092C
:1010300082E063E040E00E942D0982E064E040E04D
:101040000E942D09CF91DF910895DF93CF93CDB703
:10105000DEB729970FB6F894DEBF0FBECDBF8983E8
:101060006A834B838B81282F30E0398728878885D6
:101070009985009739F0288539852130310509F4A3
:1010800075C0E2C08981282F30E03F832E838E8196
:101090009F818130910559F12E813F8122303105A8
:1010A0002CF48E819F81009769F0CEC02E813F8104
:1010B0002230310589F18E819F818330910509F4B9
:1010C00040C0C2C0AAE3B0E0EAE3F0E08081482F6C
:1010D0008A81282F30E081E090E0022E02C0880F44
:1010E000991F0A94E2F7809584238C93ADC0A7E3FF
:1010F000B0E0E7E3F0E08081482F8A81282F30E0DC
:1011000081E090E0022E02C0880F991F0A94E2F756
:10111000809584238C9398C0A4E3B0E0E4E3F0E0EE
:101120008081482F8A81282F30E081E090E0022ED4
:1011300002C0880F991F0A94E2F7809584238C934C
:1011400083C0A1E3B0E0E1E3F0E08081482F8A8131
:10115000282F30E081E090E0022E02C0880F991F16
:101160000A94E2F7809584238C936EC08981282F9E
:1011700030E03D832C838C819D818130910549F144
:101180002C813D81223031052CF48C819D8100978A
:1011900061F05AC02C813D812230310571F18C8182
:1011A0009D8183309105E9F14FC0AAE3B0E0EAE305
:1011B000F0E08081482F8A81282F30E081E090E0A4
:1011C000022E02C0880F991F0A94E2F7842B8C9399
:1011D0003BC0A7E3B0E0E7E3F0E08081482F8A81DD
:1011E000282F30E081E090E0022E02C0880F991F86
:1011F0000A94E2F7842B8C9327C0A4E3B0E0E4E3E5
:10120000F0E08081482F8A81282F30E081E090E053
:10121000022E02C0880F991F0A94E2F7842B8C9348
:1012200013C0A1E3B0E0E1E3F0E08081482F8A81C0
:10123000282F30E081E090E0022E02C0880F991F35
:101240000A94E2F7842B8C9329960FB6F894DEBFAC
:101250000FBECDBFCF91DF910895DF93CF93CDB770
:10126000DEB729970FB6F894DEBF0FBECDBF8983D6
:101270006A834B838B81282F30E0398728878885C4
:101280009985009739F0288539852130310509F491
:1012900075C0E2C08981282F30E03F832E838E8184
:1012A0009F818130910559F12E813F812230310596
:1012B0002CF48E819F81009769F0CEC02E813F81F2
:1012C0002230310589F18E819F818330910509F4A7
:1012D00040C0C2C0ABE3B0E0EBE3F0E08081482F58
:1012E0008A81282F30E081E090E0022E02C0880F32
:1012F000991F0A94E2F7809584238C93ADC0A8E3EC
:10130000B0E0E8E3F0E08081482F8A81282F30E0C8
:1013100081E090E0022E02C0880F991F0A94E2F744
:10132000809584238C9398C0A5E3B0E0E5E3F0E0DA
:101330008081482F8A81282F30E081E090E0022EC2
:1013400002C0880F991F0A94E2F7809584238C933A
:1013500083C0A2E3B0E0E2E3F0E08081482F8A811D
:10136000282F30E081E090E0022E02C0880F991F04
:101370000A94E2F7809584238C936EC08981282F8C
:1013800030E03D832C838C819D818130910549F132
:101390002C813D81223031052CF48C819D81009778
:1013A00061F05AC02C813D812230310571F18C8170
:1013B0009D8183309105E9F14FC0ABE3B0E0EBE3F1
:1013C000F0E08081482F8A81282F30E081E090E092
:1013D000022E02C0880F991F0A94E2F7842B8C9387
:1013E0003BC0A8E3B0E0E8E3F0E08081482F8A81C9
:1013F000282F30E081E090E0022E02C0880F991F74
:101400000A94E2F7842B8C9327C0A5E3B0E0E5E3D0
:10141000F0E08081482F8A81282F30E081E090E041
:10142000022E02C0880F991F0A94E2F7842B8C9336
:1014300013C0A2E3B0E0E2E3F0E08081482F8A81AC
:10144000282F30E081E090E0022E02C0880F991F23
:101450000A94E2F7842B8C9329960FB6F894DEBF9A
:101460000FBECDBFCF91DF910895DF93CF9300D012
:1014700000D0CDB7DEB789836A838981282F30E019
:101480003C832B838B819C8181309105D1F02B8112
:101490003C81223031052CF48B819C81009761F0D6
:1014A0001EC02B813C812230310581F08B819C81D3
:1014B0008330910581F013C0EAE3F0E08A818083F4
:1014C0000EC0E7E3F0E08A81808309C0E4E3F0E046
:1014D0008A81808304C0E1E3F0E08A8180830F90F9
:1014E0000F900F900F90CF91DF910895DF93CF93DE
:1014F00000D000D0CDB7DEB789836A838981282FD9
:1015000030E03C832B838B819C8181309105D1F02D
:101510002B813C81223031052CF48B819C810097FA
:1015200061F01EC02B813C812230310581F08B811E
:101530009C818330910581F013C0EBE3F0E08A8158
:1015400080830EC0E8E3F0E08A81808309C0E5E390
:10155000F0E08A81808304C0E2E3F0E08A81808346
:101560000F900F900F900F90CF91DF910895DF9320
:10157000CF9300D000D0CDB7DEB789836A8389814D
:10158000282F30E03C832B838B819C818130910517
:1015900049F12B813C81223031052CF48B819C81D7
:1015A000009761F05AC02B813C812230310571F1E6
:1015B0008B819C8183309105E9F14FC0ABE3B0E0B2
:1015C000EBE3F0E08081482F8A81282F30E081E032
:1015D00090E0022E02C0880F991F0A94E2F7842738
:1015E0008C933BC0A8E3B0E0E8E3F0E08081482FB3
:1015F0008A81282F30E081E090E0022E02C0880F1F
:10160000991F0A94E2F784278C9327C0A5E3B0E0E2
:10161000E5E3F0E08081482F8A81282F30E081E0E7
:1016200090E0022E02C0880F991F0A94E2F78427E7
:101630008C9313C0A2E3B0E0E2E3F0E08081482F96
:101640008A81282F30E081E090E0022E02C0880FCE
:10165000991F0A94E2F784278C930F900F900F90B4
:101660000F90CF91DF910895DF93CF9300D000D0FA
:101670000F92CDB7DEB78A836B838A81282F30E043
:101680003D832C834C815D814130510541F18C813A
:101690009D818230910534F42C813D8121153105E5
:1016A00061F052C04C815D814230510551F18C8115
:1016B0009D8183309105B9F147C0E9E3F0E0808175
:1016C000282F30E08B81882F90E0A90102C055952A
:1016D00047958A95E2F7CA018170898335C0E6E3B0
:1016E000F0E08081282F30E08B81882F90E0A901E5
:1016F00002C0559547958A95E2F7CA0181708983A2
:1017000023C0E3E3F0E08081282F30E08B81882F35
:1017100090E0A90102C0559547958A95E2F7CA0164
:101720008170898311C0E0E3F0E08081282F30E0F0
:101730008B81882F90E0A90102C0559547958A9525
:10174000E2F7CA018170898389810F900F900F9011
:101750000F900F90CF91DF910895DF93CF93CDB786
:10176000DEB780E063E040E00E94250880E063E0AF
:1017700041E00E942D0980E064E040E00E942508DD
:1017800080E064E041E00E942D09CF91DF9108954F
:10179000DF93CF930F92CDB7DEB780E063E00E9476
:1017A000340B898389810F90CF91DF910895DF9366
:1017B000CF930F92CDB7DEB780E064E00E94340B88
:1017C000898389810F90CF91DF910895DF93CF9323
:1017D000CDB7DEB76E970FB6F894DEBF0FBECDBFA4
:1017E0000E94C80B8E8F0E94D70B8D8F8E8D8130FB
:1017F00069F48D8D813051F481E00E941D0D80E6E9
:1018000090E00E94C7110E9422070EC18E8D813088
:1018100009F082C08D8D882309F07EC00E946C077C
:1018200081E00E941D0D8DE690E00E94C71180E0CE
:1018300090E0A8ECB2E4898F9A8FAB8FBC8F698D52
:101840007A8D8B8D9C8D20E030E04AEF54E40E942D
:101850001F02DC01CB018D8B9E8BAF8BB88F6D8906
:101860007E898F89988D20E030E040E85FE30E9418
:10187000250488232CF481E090E09C8B8B8B3FC067
:101880006D897E898F89988D20E03FEF4FE757E47F
:101890000E94C50318164CF5698D7A8D8B8D9C8D31
:1018A00020E030E040E251E40E941F02DC01CB0165
:1018B000BC01CD010E944900DC01CB019C8B8B8BCC
:1018C0000FC088EC90E09A8B898B89899A8901975F
:1018D000F1F79A8B898B8B899C8901979C8B8B8BD9
:1018E0008B899C89009769F714C06D897E898F89DF
:1018F000988D0E944900DC01CB019C8B8B8B8B89DE
:101900009C89988B8F878F8598890197F1F7988BA1
:101910008F870E94E60B88C08E8D882309F082C0D5
:101920008D8D813009F07EC00E94910781E00E9478
:101930001D0D80E890E00E94C71180E090E0A8ECC7
:10194000B2E48B879C87AD87BE876B857C858D8550
:101950009E8520E030E04AEF54E40E941F02DC0143
:10196000CB018F839887A987BA876F81788589850E
:101970009A8520E030E040E85FE30E942504882358
:101980002CF481E090E09E838D833FC06F81788549
:1019900089859A8520E03FEF4FE757E40E94C50311
:1019A00018164CF56B857C858D859E8520E030E092
:1019B00040E251E40E941F02DC01CB01BC01CD01D9
:1019C0000E944900DC01CB019E838D830FC088EC0F
:1019D00090E09C838B838B819C810197F1F79C83A2
:1019E0008B838D819E8101979E838D838D819E81C6
:1019F000009769F714C06F81788589859A850E9460
:101A00004900DC01CB019E838D838D819E819A8369
:101A1000898389819A810197F1F79A8389830E944A
:101A2000E60B02C00E9400086E960FB6F894DEBF67
:101A30000FBECDBFCF91DF910895DF93CF93CDB788
:101A4000DEB769970FB6F894DEBF0FBECDBF898FA2
:101A500083E063E040E00E942D0983E062E040E023
:101A60000E942D0981E0698D0E94760A80E062E083
:101A700041E00E942D0980E090E0A0E8BFE38D8B5B
:101A80009E8BAF8BB88F6D897E898F89988D2BEA5D
:101A90003AEA4AE250E40E941F02DC01CB01898B42
:101AA0009A8BAB8BBC8B69897A898B899C8920E066
:101AB00030E040E85FE30E94250488231CF481E0C5
:101AC000888B91C069897A898B899C8920E030E074
:101AD0004FE753E40E94C50318160CF07BC06D89D4
:101AE0007E898F89988D20E030E04AE754E40E9497
:101AF0001903DC01CB018C879D87AE87BF876C857E
:101B00007D858E859F8520E030E04AEF54E40E9479
:101B10001F02DC01CB0188879987AA87BB8768856C
:101B200079858A859B8520E030E040E85FE30E946C
:101B3000250488232CF481E090E09F838E833FC0AE
:101B4000688579858A859B8520E03FEF4FE757E4DC
:101B50000E94C50318164CF56C857D858E859F8582
:101B600020E030E040E251E40E941F02DC01CB01A2
:101B7000BC01CD010E944900DC01CB019F838E8313
:101B80000FC088EC90E09D838C838C819D810197B0
:101B9000F1F79D838C838E819F8101979F838E8334
:101BA0008E819F81009769F724C0688579858A8531
:101BB0009B850E944900DC01CB019F838E838E812F
:101BC0009F819B838A838A819B810197F1F79B8305
:101BD0008A830FC069897A898B899C890E94490010
:101BE000DC01CB01888B8889898389818A95F1F70B
:101BF000898380E062E040E00E942D0969960FB67B
:101C0000F894DEBF0FBECDBFCF91DF910895DF9373
:101C1000CF93CDB7DEB769970FB6F894DEBF0FBE8E
:101C2000CDBF898F83E063E041E00E942D0983E00E
:101C300062E040E00E942D0981E0698D0E94760AF1
:101C400080E062E041E00E942D0980E090E0A0E8A1
:101C5000BFE38D8B9E8BAF8BB88F6D897E898F890B
:101C6000988D2BEA3AEA4AE250E40E941F02DC0116
:101C7000CB01898B9A8BAB8BBC8B69897A898B89D9
:101C80009C8920E030E040E85FE30E94250488233F
:101C90001CF481E0888B91C069897A898B899C8941
:101CA00020E030E04FE753E40E94C50318160CF023
:101CB0007BC06D897E898F89988D20E030E04AE76E
:101CC00054E40E941903DC01CB018C879D87AE8709
:101CD000BF876C857D858E859F8520E030E04AEF4B
:101CE00054E40E941F02DC01CB0188879987AA87F0
:101CF000BB87688579858A859B8520E030E040E850
:101D00005FE30E94250488232CF481E090E09F8308
:101D10008E833FC0688579858A859B8520E03FEF6B
:101D20004FE757E40E94C50318164CF56C857D8576
:101D30008E859F8520E030E040E251E40E941F0242
:101D4000DC01CB01BC01CD010E944900DC01CB01CB
:101D50009F838E830FC088EC90E09D838C838C8161
:101D60009D810197F1F79D838C838E819F810197DF
:101D70009F838E838E819F81009769F724C0688539
:101D800079858A859B850E944900DC01CB019F8370
:101D90008E838E819F819B838A838A819B81019719
:101DA000F1F79B838A830FC069897A898B899C8923
:101DB0000E944900DC01CB01888B88898983898155
:101DC0008A95F1F7898380E062E040E00E942D0966
:101DD00069960FB6F894DEBF0FBECDBFCF91DF91ED
:101DE00008950F931F93DF93CF93CDB7DEB7CC54F5
:101DF000D0400FB6F894DEBF0FBECDBF81E06FEFCD
:101E00000E94350A80E062E041E00E94250883E0FC
:101E100062E041E00E94250883E063E041E00E9427
:101E20002508FE01E75BFF4F80E090E0ACE0B2E404
:101E300080839183A283B3838E010B5B1F4FFE01CE
:101E4000E75BFF4F608171818281938120E030E008
:101E50004AEF54E40E941F02DC01CB01F8018083A9
:101E60009183A283B383FE01EB5BFF4F608171819D
:101E70008281938120E030E040E85FE30E94250406
:101E8000882344F4FE01ED5BFF4F81E090E09183F5
:101E9000808364C0FE01EB5BFF4F608171818281B2
:101EA000938120E03FEF4FE757E40E94C5031816E7
:101EB0000CF043C0FE01E75BFF4F608171818281BE
:101EC000938120E030E040E251E40E941F02DC01F7
:101ED000CB018E010D5B1F4FBC01CD010E9449005B
:101EE000DC01CB01F801918380831FC0FE01EF5B11
:101EF000FF4F88EC90E091838083FE01EF5BFF4F02
:101F0000808191810197F1F7FE01EF5BFF4F918393
:101F10008083DE01AD5BBF4FFE01ED5BFF4F808133
:101F20009181019711969C938E93FE01ED5BFF4F7B
:101F3000808191810097D1F624C08E010D5B1F4FE7
:101F4000FE01EB5BFF4F60817181828193810E9472
:101F50004900DC01CB01F80191838083FE01ED5B38
:101F6000FF4F80819181FE01FF9691838083FE0166
:101F7000FF96808191810197F1F7FE01FF96918391
:101F8000808388E30E941D0D80E090E0A8E4B2E425
:101F90008BAF9CAFADAFBEAF6BAD7CAD8DAD9EAD2D
:101FA0002BEA3AEA4AE250E40E941F02DC01CB012C
:101FB0008FAB98AFA9AFBAAF6FA978AD89AD9AAD25
:101FC00020E030E040E85FE30E94250488231CF411
:101FD00081E08EAB91C06FA978AD89AD9AAD20E05C
:101FE00030E04FE753E40E94C50318160CF07BC0A5
:101FF0006BAD7CAD8DAD9EAD20E030E04AE754E4A2
:102000000E941903DC01CB018AAB9BABACABBDAB2F
:102010006AA97BA98CA99DA920E030E04AEF54E48D
:102020000E941F02DC01CB018EA79FA7A8ABB9AB12
:102030006EA57FA588A999A920E030E040E85FE37C
:102040000E94250488232CF481E090E09DA78CA7B2
:102050003FC06EA57FA588A999A920E03FEF4FE773
:1020600057E40E94C50318164CF56AA97BA98CA9F0
:102070009DA920E030E040E251E40E941F02DC0113
:10208000CB01BC01CD010E944900DC01CB019DA721
:102090008CA70FC088EC90E09BA78AA78AA59BA578
:1020A0000197F1F79BA78AA78CA59DA501979DA7EE
:1020B0008CA78CA59DA5009769F724C06EA57FA568
:1020C00088A999A90E944900DC01CB019DA78CA792
:1020D0008CA59DA599A788A788A599A50197F1F733
:1020E00099A788A70FC06FA978AD89AD9AAD0E9456
:1020F0004900DC01CB018EAB8EA98FA38FA18A95FD
:10210000F1F78FA38CE00E941D0D80E090E0A8E421
:10211000B2E48BA39CA3ADA3BEA36BA17CA18DA1B4
:102120009EA12BEA3AEA4AE250E40E941F02DC0137
:10213000CB018F8F98A3A9A3BAA36F8D78A189A192
:102140009AA120E030E040E85FE30E942504882364
:102150001CF481E08E8F91C06F8D78A189A19AA126
:1021600020E030E04FE753E40E94C50318160CF05E
:102170007BC06BA17CA18DA19EA120E030E04AE74D
:1021800054E40E941903DC01CB018A8F9B8FAC8F32
:10219000BD8F6A8D7B8D8C8D9D8D20E030E04AEF68
:1021A00054E40E941F02DC01CB018E8B9F8BA88F11
:1021B000B98F6E897F89888D998D20E030E040E865
:1021C0005FE30E94250488232CF481E090E09D8B3E
:1021D0008C8B3FC06E897F89888D998D20E03FEF81
:1021E0004FE757E40E94C50318164CF56A8D7B8DA6
:1021F0008C8D9D8D20E030E040E251E40E941F0272
:10220000DC01CB01BC01CD010E944900DC01CB0106
:102210009D8B8C8B0FC088EC90E09B8B8A8B8A897E
:102220009B890197F1F79B8B8A8B8C899D890197FC
:102230009D8B8C8B8C899D89009769F724C06E8952
:102240007F89888D998D0E944900DC01CB019D8B8F
:102250008C8B8C899D89998B888B8889998901972A
:10226000F1F7998B888B0FC06F8D78A189A19AA106
:102270000E944900DC01CB018E8F8E8D8F878F8568
:102280008A95F1F78F8781E00E941D0D80E090E034
:10229000A0E0B0E48B879C87AD87BE876B857C858B
:1022A0008D859E8520E030E04AEF54E40E941F02B5
:1022B000DC01CB018F839887A987BA876F817885E6
:1022C00089859A8520E030E040E85FE30E9425049C
:1022D00088232CF481E090E09E838D833FC06F8142
:1022E000788589859A8520E03FEF4FE757E40E9483
:1022F000C50318164CF56B857C858D859E8520E081
:1023000030E040E251E40E941F02DC01CB01BC013D
:10231000CD010E944900DC01CB019E838D830FC05B
:1023200088EC90E09C838B838B819C810197F1F7F3
:102330009C838B838D819E8101979E838D838D816C
:102340009E81009769F714C06F81788589859A8589
:102350000E944900DC01CB019E838D838D819E818B
:102360009A83898389819A810197F1F79A83898376
:1023700086E00E941D0DC45BDF4F0FB6F894DEBFF0
:102380000FBECDBFCF91DF911F910F910895DF93C5
:10239000CF9300D0CDB7DEB79A8389830AC0E98195
:1023A000FA8180810E94070E89819A8101969A8321
:1023B0008983E981FA818081882389F70F900F90C2
:1023C000CF91DF910895DF93CF93CDB7DEB76297BA
:1023D0000FB6F894DEBF0FBECDBF8F87688B80E04D
:1023E00090E0A0E0B0E48B879C87AD87BE876B85CB
:1023F0007C858D859E8520E030E04AEF54E40E9484
:102400001F02DC01CB018F839887A987BA876F8170
:10241000788589859A8520E030E040E85FE30E9476
:10242000250488232CF481E090E09E838D833FC0B7
:102430006F81788589859A8520E03FEF4FE757E4E3
:102440000E94C50318164CF56B857C858D859E858D
:1024500020E030E040E251E40E941F02DC01CB01A9
:10246000BC01CD010E944900DC01CB019E838D831C
:102470000FC088EC90E09C838B838B819C810197BB
:10248000F1F79C838B838D819E8101979E838D8341
:102490008D819E81009769F714C06F817885898549
:1024A0009A850E944900DC01CB019E838D838D813A
:1024B0009E819A83898389819A810197F1F79A8312
:1024C00089838F85282F30E03A8B298B89899A89D7
:1024D0008130910531F029893A892230310531F076
:1024E00009C0888980580E941D0D04C088898054C5
:1024F0000E941D0D62960FB6F894DEBF0FBECDBFD1
:10250000CF91DF910895DF93CF93CDB7DEB72C97AE
:102510000FB6F894DEBF0FBECDBF69877A878B8771
:102520009C8781E090E0A0E0B0E08D839E83AF8344
:10253000B88719821A821B821C8289859A85AB858D
:10254000BC850097A105B105B1F480E30E94070E98
:102550007AC08D819E81AF81B8852AE030E040E06D
:1025600050E0BC01CD010E940318DC01CB018D833A
:102570009E83AF83B88789859A85AB85BC852D817D
:102580003E814F815885BC01CD010E942218DA019D
:10259000C9010097A105B105E1F68D819E81AF814A
:1025A000B8852AE030E040E050E0BC01CD010E9457
:1025B0002218DA01C9018D839E83AF83B8873AC0A0
:1025C00089859A85AB85BC852D813E814F81588553
:1025D000BC01CD010E942218DA01C90189839A83C6
:1025E000AB83BC838981805D0E94070E89859A85B3
:1025F000AB85BC852D813E814F815885BC01CD01C5
:102600000E942218DC01CB0189879A87AB87BC879F
:102610008D819E81AF81B8852AE030E040E050E0B6
:10262000BC01CD010E942218DA01C9018D839E836D
:10263000AF83B8878D819E81AF81B8850097A10552
:10264000B10509F0BDCF2C960FB6F894DEBF0FBED2
:10265000CDBFCF91DF910895DF93CF9300D00F923C
:10266000CDB7DEB780E88B8383E390E09A838983DC
:10267000E9E2F0E089818083E0E4F0E089819A81F9
:10268000892F99278083ABE2B0E0EBE2F0E0808114
:102690008D7F8C93ABE2B0E0EBE2F0E080818E7F47
:1026A0008C93AAE2B0E0EAE2F0E0808180618C9352
:1026B000AAE2B0E0EAE2F0E0808188608C93AAE2CE
:1026C000B0E0EAE2F0E080818B7F8C938B818260C6
:1026D0008B838B8184608B838B818F7B8B838B81BE
:1026E0008F7E8B838B818F7D8B838B8188608B83A7
:1026F000E0E4F0E08B8180830F900F900F90CF91FA
:10270000DF910895DF93CF930F92CDB7DEB7898322
:10271000EBE2F0E08081829586958770882F90E0CB
:10272000817090700097A1F3ECE2F0E089818083E2
:102730000F90CF91DF910895DF93CF9300D00F9248
:10274000CDB7DEB780ED97E09A83898309C0898190
:102750009A81009751F089819A8101979A838983A0
:10276000EBE2F0E08081882394F7ECE2F0E08081F6
:102770008B838B810F900F900F90CF91DF910895F5
:102780001F920F920FB60F9211248F939F93AF93C6
:10279000BF93DF93CF93CDB7DEB78091DE019091E9
:1027A000DF01A091E001B091E1010196A11DB11DF1
:1027B0008093DE019093DF01A093E001B093E101EB
:1027C000CF91DF91BF91AF919F918F910F900FBEED
:1027D0000F901F901895DF93CF93CDB7DEB780E0B1
:1027E00060E041E00E94250883E066E041E00E944D
:1027F0002D097894A9E5B0E0E9E5F0E080818460F6
:102800008C93EFE4F0E01082CF91DF910895EF9286
:10281000FF920F931F93DF93CF93CDB7DEB7A097AF
:102820000FB6F894DEBF0FBECDBFABE3B0E0EBE375
:10283000F0E0808181608C9380E090E0A0E2B1E4E0
:102840008D8B9E8BAF8BB88F6D897E898F89988D8C
:102850002BEA3AEA4AE250E40E941F02DC01CB0173
:10286000898B9A8BAB8BBC8B69897A898B899C8984
:1028700020E030E040E85FE30E94250488231CF458
:1028800081E0888B91C069897A898B899C8920E055
:1028900030E04FE753E40E94C50318160CF07BC0EC
:1028A0006D897E898F89988D20E030E04AE754E475
:1028B0000E941903DC01CB018C879D87AE87BF87FF
:1028C0006C857D858E859F8520E030E04AEF54E45D
:1028D0000E941F02DC01CB0188879987AA87BB87EA
:1028E000688579858A859B8520E030E040E85FE354
:1028F0000E94250488232CF481E090E09F838E833E
:102900003FC0688579858A859B8520E03FEF4FE74A
:1029100057E40E94C50318164CF56C857D858E859D
:102920009F8520E030E040E251E40E941F02DC017C
:10293000CB01BC01CD010E944900DC01CB019F838A
:102940008E830FC088EC90E09D838C838C819D8169
:102950000197F1F79D838C838E819F8101979F83DF
:102960008E838E819F81009769F724C06885798561
:102970008A859B850E944900DC01CB019F838E8361
:102980008E819F819B838A838A819B810197F1F746
:102990009B838A830FC069897A898B899C890E946D
:1029A0004900DC01CB01888B8889898389818A95DC
:1029B000F1F78983ABE3B0E0EBE3F0E080818E7F59
:1029C0008C93ECE4F0E011821082A8E5B0E0E8E539
:1029D000F0E0808180628C93A8E5B0E0E8E5F0E06B
:1029E000808184608C93EEE4F0E081E48083E8E50C
:1029F000F0E08081882F90E0807290700097B9F3AA
:102A0000ECE4F0E011821082A8E5B0E0E8E5F0E047
:102A1000808180628C93A8E5B0E0E8E5F0E08081F9
:102A200084608C931092DE011092DF011092E0011D
:102A30001092E101EEE4F0E081E08083E8E5F0E06F
:102A40008081882F90E0807290700097B9F3E6E45F
:102A5000F0E0808191817C0100E010E08091DE0156
:102A60009091DF01A091E001B091E1012FEF3FEFE4
:102A700040E050E0BC01CD010E940318DC01CB0115
:102A80008E0D9F1DA01FB11F898F9A8FAB8FBC8F9A
:102A9000698D7A8D8B8D9C8D0E94A904DC01CB0100
:102AA000BC01CD0129E23CE349EE53E40E94190345
:102AB000DC01CB01BC01CD010E944900DC01CB014E
:102AC0008D8F9E8FAF8FB8A38D8D9E8DAF8DB8A14A
:102AD0000196A11DB11D8D8F9E8FAF8FB8A38D8DD7
:102AE0009E8DAF8DB8A1BC01CD01A0960FB6F89414
:102AF000DEBF0FBECDBFCF91DF911F910F91FF9031
:102B0000EF900895DF93CF93CDB7DEB7EE970FB672
:102B1000F894DEBF0FBECDBF1EAE1DAE0E94F10EFB
:102B20000E9417070E94EB130E942C130E94AD0B0A
:102B300083E060E040E00E94250883E061E041E03E
:102B40000E94250881E00E941D0D0E940714DC01EF
:102B5000CB0189AF9AAFABAFBCAF81E060E00E9420
:102B6000E31182E990E00E94C71182E060E00E94D8
:102B7000E3118DE990E00E94C71189AD9AADABAD2C
:102B8000BCADBC01CD010E94831280E090E0A8E4BE
:102B9000B3E48DAB9EABAFABB8AF6DA97EA98FA9E7
:102BA00098AD20E030E04AEF54E40E941F02DC01BF
:102BB000CB0189AB9AABABABBCAB69A97AA98BA9AA
:102BC0009CA920E030E040E85FE30E9425048823D0
:102BD0002CF481E090E098AB8FA73FC069A97AA957
:102BE0008BA99CA920E03FEF4FE757E40E94C50363
:102BF00018164CF56DA97EA98FA998AD20E030E09C
:102C000040E251E40E941F02DC01CB01BC01CD0176
:102C10000E944900DC01CB0198AB8FA70FC088EC64
:102C200090E09EA78DA78DA59EA50197F1F79EA781
:102C30008DA78FA598A9019798AB8FA78FA598A965
:102C4000009769F714C069A97AA98BA99CA90E9469
:102C50004900DC01CB0198AB8FA78FA598A99CA751
:102C60008BA78BA59CA50197F1F79CA78BA782E06A
:102C700066E041E00E94250882E066E041E00E94B3
:102C80002D0989AD9AADABADBCAD8E319105A105D5
:102C9000B10508F49AC10E949C138EAF8EAD8335A6
:102CA00019F08EAD863419F48EAD8DAF85C081E0FC
:102CB0000E941D0D81E060E00E94E31183EA90E034
:102CC0000E94C71182E060E00E94E31181EB90E076
:102CD0000E94C71180E090E0A8ECB2E48FA398A70F
:102CE000A9A7BAA76FA178A589A59AA520E030E089
:102CF0004AEF54E40E941F02DC01CB018BA39CA38A
:102D0000ADA3BEA36BA17CA18DA19EA120E030E06C
:102D100040E85FE30E94250488232CF481E090E0E2
:102D20009AA389A33FC06BA17CA18DA19EA120E0A5
:102D30003FEF4FE757E40E94C50318164CF56FA10B
:102D400078A589A59AA520E030E040E251E40E94F0
:102D50001F02DC01CB01BC01CD010E944900DC0156
:102D6000CB019AA389A30FC088EC90E098A38F8F22
:102D70008F8D98A10197F1F798A38F8F89A19AA1C0
:102D800001979AA389A389A19AA1009769F714C012
:102D90006BA17CA18DA19EA10E944900DC01CB0109
:102DA0009AA389A389A19AA19E8F8D8F8D8D9E8DC7
:102DB0000197F1F79E8F8D8F80E090E0A8E4B3E457
:102DC000898F9A8FAB8FBC8F698D7A8D8B8D9C8DFF
:102DD00020E030E04AEF54E40E941F02DC01CB0106
:102DE0008D8B9E8BAF8BB88F6D897E898F89988DE7
:102DF00020E030E040E85FE30E94250488232CF4C3
:102E000081E090E09C8B8B8B3FC06D897E898F89A0
:102E1000988D20E03FEF4FE757E40E94C503181656
:102E20004CF5698D7A8D8B8D9C8D20E030E040E2F1
:102E300051E40E941F02DC01CB01BC01CD010E94C4
:102E40004900DC01CB019C8B8B8B0FC088EC90E0A0
:102E50009A8B898B89899A890197F1F79A8B898B4B
:102E60008B899C8901979C8B8B8B8B899C89009784
:102E700069F714C06D897E898F89988D0E944900F9
:102E8000DC01CB019C8B8B8B8B899C89988B8F87EA
:102E90008F8598890197F1F7988B8F878DAD863450
:102EA00059F481E00E941D0D82E066E041E00E943D
:102EB0002D090E94E60B46CE8DAD833509F042CE3A
:102EC00081E00E941D0D0E94000882E066E040E063
:102ED0000E942D0981E060E00E94E3118DEB90E0FB
:102EE0000E94C71180E090E0AAE7B4E48B879C873A
:102EF000AD87BE876B857C858D859E8520E030E023
:102F00004AEF54E40E941F02DC01CB018F839887B3
:102F1000A987BA876F81788589859A8520E030E016
:102F200040E85FE30E94250488232CF481E090E0D0
:102F30009E838D833FC06F81788589859A8520E047
:102F40003FEF4FE757E40E94C50318164CF56B8519
:102F50007C858D859E8520E030E040E251E40E9432
:102F60001F02DC01CB01BC01CD010E944900DC0144
:102F7000CB019E838D830FC088EC90E09C838B8374
:102F80008B819C810197F1F79C838B838D819E813E
:102F900001979E838D838D819E81009769F7D2CDA5
:102FA0006F81788589859A850E944900DC01CB0173
:102FB0009E838D838D819E819A83898389819A8165
:102FC0000197F1F79A838983BDCD81E00E941D0DA1
:102FD0000E94000881E060E00E94E3118AEC90E02A
:102FE0000E94C71182E060E00E94E3118DE990E049
:102FF0000E94C71189AD9AADABADBCADBC01CD018E
:103000000E9483129FCD629FD001739FF001829F27
:10301000E00DF11D649FE00DF11D929FF00D839F67
:10302000F00D749FF00D659FF00D9927729FB00D04
:10303000E11DF91F639FB00DE11DF91FBD01CF0117
:1030400011240895A1E21A2EAA1BBB1BFD010DC07D
:10305000AA1FBB1FEE1FFF1FA217B307E407F50748
:1030600020F0A21BB30BE40BF50B661F771F881F24
:10307000991F1A9469F760957095809590959B01BA
:10308000AC01BD01CF0108952F923F924F925F9204
:103090006F927F928F929F92AF92BF92CF92DF9268
:1030A000EF92FF920F931F93CF93DF93CDB7DEB7CD
:1030B000CA1BDB0B0FB6F894DEBF0FBECDBF099461
:1030C0002A88398848885F846E847D848C849B84B8
:1030D000AA84B984C884DF80EE80FD800C811B81C6
:1030E000AA81B981CE0FD11D0FB6F894DEBF0FBEF5
:0A30F000CDBFED010895F894FFCF65
:1030FA006D6F766520666F72776F7264006D6F769A
:10310A006520666F72776F7264205269676874000F
:10311A006D6F766520666F72776F7264206C656674
:10312A007400556C747261736F6E696300646973BD
:10313A00743D00706C6561736520656E74657220FC
:10314A000076616C696420696E70757400436172FF
:10315A002053746F70706564200063616E6E6F74C3
:10316A00206D6F766500000000000000000000017D
:10317A00020203030303040404040404040405050B
:10318A0005050505050505050505050505050606E3
:10319A0006060606060606060606060606060606C5
:1031AA0006060606060606060606060606060707B3
:1031BA000707070707070707070707070707070795
:1031CA000707070707070707070707070707070785
:1031DA000707070707070707070707070707070775
:1031EA000707070707070707070707070707080863
:1031FA000808080808080808080808080808080845
:10320A000808080808080808080808080808080834
:10321A000808080808080808080808080808080824
:10322A000808080808080808080808080808080814
:10323A000808080808080808080808080808080804
:10324A0008080808080808080808080808080808F4
:10325A0008080808080808080808080808080808E4
:0E326A000808080808080808080808080808E6
:00000001FF
